:1000000000000120B1330000AD330000AD3300002B
:10001000ED1A0000AD330000AD330000AD33000039
:10002000AD330000AD330000AD330000AD33000050
:10003000AD330000AD330000AD330000AD33000040
:10004000AD3300005D700000AD330000AD33000043
:10005000AD680000A97000007170000075700000AC
:1000600069700000AD330000AD330000AD33000017
:10007000AD330000AD330000AD330000AD33000000
:10008000AD330000AD330000AD330000AD330000F0
:10009000AD330000AD330000AD330000AD330000E0
:1000A000AD330000AD330000AD330000AD330000D0
:1000B000AD7000006D700000AD330000E97000000D
:1000C000AD33000065540000AD330000AD330000D7
:1000D000AD330000AD330000AD330000AD330000A0
:1000E000AD330000AD330000AD330000AD33000090
:1000F000AD330000AD330000AD330000AD33000080
:10010000AD330000AD330000AD33000010B5054C39
:10011000237833B9044B13B10448AFF300800123B3
:10012000237010BDC800002000000000E0B60000F1
:1001300008B5034B1BB103490348AFF3008008BD6A
:1001400000000000CC000020E0B60000A3F5803ADB
:10015000704700BF174B002B08BF134B9D46FFF79E
:10016000F5FF00218B460F461348144A121A09F076
:100170003FF80E4B002B00D098470D4B002B00D0C2
:1001800098470020002104000D000D48002802D0EF
:100190000C48AFF3008008F0F9FF2000290002F0BE
:1001A000EBF908F0DFFF00BF0000080000000000CE
:1001B0000000000000000120C80000201C180020E2
:1001C0000000000000000000BFF34F8F0549064B00
:1001D000CA6802F4E0621343CB60BFF34F8F00BFE5
:1001E000FDE700BF00ED00E00400FA0510B502468F
:1001F00000B3114B1968888890421BD398889042AD
:1002000081BF0968996001209880998898680024C6
:1002100028B904B198604FF6FF729A8009E08A42CB
:1002200004D00131006889B20124F1E70CB19A8051
:10023000986010BD0020FCE7AC060020114A916ACE
:1002400001F1704303F5F813B3F5006F0CD2D2F847
:100250002838A3F17E62A2F58432B2F5104F03D2A2
:100260000968094A914203D00023037083607047F4
:100270001968064A9142F7D1012202709A684260D9
:100280009B69F3E70000E10FAD1007B007B0CD5E4A
:100290001FB50C4640B901A8FFF7D0FF044B029AE6
:1002A0001A6023600423A380002004B010BD00BFA7
:1002B00060010020064BD3F82828A2F17E63A3F545
:1002C0008433B3F5104F01D2536A184700207047AA
:1002D0000000E10F0D4B10B4D3F82848A4F17E6361
:1002E000A3F58433B3F5104F0BD2246BA4F17E63D6
:1002F000A3F58433B3F5104F03D2A36B5DF8044B21
:10030000184740F201105DF8044B70470000E10F00
:100310000B4BD3F82828A2F17E63A3F58433B3F501
:10032000104F09D2126BA2F17E63A3F58433B3F5AB
:10033000104F01D2D36B184740F20110704700BF35
:100340000000E10F7FB50F4A03466D4602F110062B
:10035000106851682C4603C40832B2422546F7D1D2
:100360005A1E0DF10F010F3311F8010912F8014F58
:10037000844204D19A42F7D1012004B070BD00201C
:10038000FBE700BF00940000F8B5184E306848BB8A
:10039000174B184C184FE41A184B1C4424F4FF64F4
:1003A00024F00704D7F8F8309BB2B4EB832F18D2AF
:1003B000656BC5B1D7F8F8309BB2B5EB832F12D27D
:1003C000D7F8F82005F1500392B2B3EB822F0AD888
:1003D0002846FFF7B7FF30B1EB6933F0080302D0CE
:1003E00034603068F8BD04F50064DBE748010020A4
:1003F00010000020C80000200081E00F37BF00007F
:1004000010B50C4648B9FFF7BFFF054B10B1426B62
:10041000126A1A6023600423A380002010BD00BF6D
:1004200050010020094B40F201121A604FF0FF32D8
:100430009A6001225A600144814202D1D869C043C6
:10044000704710F8012B9A61F6E700BF00C0014029
:10045000034B044A9979117500221A60704700BF56
:10046000500D00204406002030B500228BB013460A
:10047000D91003F00704415C2141CC0741BF02F1D0
:1004800028016944013201F8283C0133252BEFD1C2
:100490000D4C0023D91003F00705415C2941C90721
:1004A0005FBFB3FBF2F102FB11312831694448BF51
:1004B000D9B203F1010358BF11F8281C04F8011B3D
:1004C000252BE7D10BB030BD6E06002010B5034CD4
:1004D000A01DFFF7C9FF0023236010BD500D0020B1
:1004E000084A10B5136840F2E24404FB013160434E
:1004F000536800F5807001EB5001184411605060A2
:1005000010BD00BF44060020D0B50C4CE38C0A207F
:10051000584308F08BFB0646A08C0F4608F086FB7C
:10052000074B002208F0ECFB02460B4630463946EA
:1005300008F010FD08F0F6FD2083D0BD4406002031
:100540000000F43F10B5094CB4F80710A079FFF78C
:10055000C7FFA368064AB4F80D10D184C3F30F2374
:100560009384FFF7D1FF0023236010BD500D0020BE
:1005700044060020837DDB0701D5808A7047D0E9DF
:1005800001239B1A44BF828A9B1898B270470000CF
:10059000084BD3F8F020D3F8F4300270110A120C93
:1005A00082701A0AC2701A0C1B0E417002714371DC
:1005B000704700BF0081E00F034BD86B80F0400014
:1005C000C0F38010704700BF00300E4008B5FFF741
:1005D000F3FF20B1024AD2F8C830002BFBD108BD8E
:1005E0000000C64308B5FFF7F1FF024B5868C0F39F
:1005F000014008BD00300E400C4B984210D90C4B06
:10060000984210D9022201230A490B640A49D1F801
:10061000003123F0807343EA0263C1F80031704770
:1006200000221346F0E70122FBE700BF0048E80183
:100630000090D0030000C84300400E400F4B5B68A1
:100640000F4B30B500221C46C9B21D798D4202D134
:100650001D6885420DD20132052A03F10803F4D149
:10066000032206494B6823F0407343EA02634B6060
:1006700030BD04EBC2025279F3E700BF00000E4028
:100680004C95000070B5074C0748256C41F6713653
:1006900026640021FFF7D2FFADB2B5421CBF002394
:1006A000236470BD00000E4000F0490270B5064C96
:1006B00041F67136256C2664FFF7C0FFADB2B54236
:1006C0001CBF0023236470BD00000E4042EA0323D8
:1006D000B3F5007F39D016D8B3F5807F31D007D875
:1006E0005BB3012B1ED00022134603600A607047E3
:1006F00040F201129342F6D1184BD3F824321A0E6D
:10070000C3F30743F1E7B3F5407F22D040F2013253
:1007100093420ED040F201229342E4D10F4BD3F822
:10072000283202E00D4BD3F82432C3F30722DBB2A8
:10073000DBE70A4BD3F82832E1E7084BD3F81C3249
:10074000F3E7064BD3F81C32D9E7044BD3F8203239
:10075000EBE7024BD3F82032D1E700BF0081E00F76
:100760002F4B1A6FD96C11F0010F02F0060242D024
:10077000002A40D013284FD9143813288CBF1023D7
:1007800008232749013BCA6C180322F47F4240EA40
:1007900003231343CB64234BCA6C1B88C2F303228D
:1007A0002833013202EB820003EB5303B3FBF0F377
:1007B000C86C013B072B28BF072320F0EE6040EAFE
:1007C000036343F48013CB64174BB3F90030002B61
:1007D00010DB2833500800EB420203EB5303B3FB5A
:1007E000F2F30A6D072B28BF072322F0700242EABA
:1007F00003130B657047D96C01F00101114304D15B
:10080000092809D90A380928B8E7DB6C13F0010375
:10081000B7D01AB92728B1E70423B2E70023B0E71D
:1008200000300E40C2060020C406002070B51D4DE9
:10083000D5F82828A2F17E63A3F58433B3F5104FD1
:10084000E0B004D34FF40174204660B070BD136B68
:10085000002BF7D05B6A4FF4C072694600209847BE
:1008600004460028F0D140F20126D5F82828A2F14C
:100870007E63A3F58433B3F5104FE3D2126BA2F17C
:100880007E63A3F58433B3F5104FDBD2936A002166
:1008900068469847B042E8D040F20323984218BF18
:1008A0000446D1E70000E10F104A0B46D2F82818A1
:1008B000A1F17E62A2F58432B2F5104F10B40FD2CE
:1008C000096BA1F17E62A2F58432B2F5104F07D216
:1008D0000C69074A0146A44600205DF8044B6047B6
:1008E0004FF481705DF8044B704700BF0000E10FCA
:1008F000F406002037B50446684680E8060003C8C1
:10090000251D85E805002373069B0B4A2361BDF86E
:100910001C30A38200232360136853B119461B685F
:10092000002BFBD10C609088013080B2908003B026
:1009300030BD1460F7E700BFA406002037B50D46B0
:100940001446FFF753FC70B1036973B1818A4FF607
:10095000FE72914209D10095ADF80440694601202C
:10096000984703B030BD0120FBE70E20F9E703698B
:1009700037B514460D46828A63B14FF6FE718A423E
:1009800008D100200090ADF804006946984728B1CE
:1009900003B030BD2B6000202280F9E7009B2B6064
:1009A000BDF804302380F3E738B50D461446FFF751
:1009B0001DFC40B122462946FFF7D9FF10B92B682C
:1009C00003B9208038BD0120FCE7000007B503799A
:1009D0000193054A0368009306CA02230830FFF713
:1009E00089FF03B05DF804FBA8950000034B5A6D26
:1009F00012B95865A3F85810704700BF440600208C
:100A00000C4BD3F82838A3F17E62A2F58432B2F5FC
:100A1000104F10B50CD21968074A914208D1074C03
:100A20002278012A04D11B6A984708B9022323704F
:100A300010BD00BF0000E10F07B0CD5E64010020D3
:100A40000C4BD3F82838A3F17E62A2F58432B2F5BC
:100A5000104F10B50DD21968074A914209D1074CC1
:100A6000227812F0FD0F04D1DB69984708B9012301
:100A7000237010BD0000E10F07B0CD5E64010020BF
:100A800008B50F4B0F4C1B784FF000556BB1FFF7BB
:100A9000D7FF0D4B2B600123A360236823F4E06391
:100AA00043F480632360FFF78FFB2B600123A36077
:100AB000236823F4E06343F480632360FFF784FB3F
:100AC0005F01002000500E4002020FF0054A08B5F9
:100AD000937E43F040039376034B00221A70FFF796
:100AE000CFFF00BF44060020A00600202DE9F04102
:100AF00016460546FFF73EFDB04228BF304686B297
:100B00000F46B046B8F1000F09D12EB1AB7DDA0720
:100B100044BF23F00103AB753046BDE8F0812B687C
:100B2000AC8A69681C44641AA4B2444528BF444690
:100B30002246384608F04EFB6A682B68A98A224490
:100B4000194427448A4238BF1346A8EB04041FFA0D
:100B500084F86B60D6E7F8B51F46038A044616464C
:100B6000EBB9C57DDDB10123013D0B700222C575D6
:100B700000F11001FFF7BAFFE37D9BB1228ABA4270
:100B800028BF3A4631462046FFF7B0FF238A1B1A9A
:100B90002382E37D13B9638A1B1A6382F8BD0023A5
:100BA0000B70EBE7638A2382E8E72DE9F041044606
:100BB0000F461146FFF7DEFCA38A181A86B28E4252
:100BC00028BF0E46B046B8F1000F0BD13EB1D4E9B4
:100BD00001329A4202BFA37D43F00103A375304660
:100BE000BDE8F0812368A58AA0681D442D1AADB226
:100BF000454528BF45462A46394608F0EBFAA26823
:100C00002368A18A2A4419442F448A4238BF1346D4
:100C1000A8EB05051FFA85F8A360D4E7F8B50446EC
:100C200016461F4611B3FFF7A5FCA58A281A80B205
:100C3000012829D9E37D63B1E068658A05702D0A32
:100C400007D02268A38A01301344984228BF104677
:100C5000F4E700236382A368E360022204F1120137
:100C60002046FFF7A2FFE37D0133E3753A463146A4
:100C70002046FFF79AFF638A03446382E37D13B93A
:100C8000238A03442382F8BD0020FCE713B50379CF
:100C9000124A03330446019300F14403009306CA49
:100CA00002231430FFF726FE238A0193E3680093A2
:100CB00094E80600237A04F12C00FFF71BFE237A48
:100CC00022792168A4F8450004F1470084F84430F3
:100CD00002B0BDE8104008F07DBA00BFA09500004A
:100CE00070B50C4C0C4B06460D46D4E9010183E867
:100CF00003001846FFF76AFE084BD4E904010222FC
:100D00001A7283E80300DE601D821846BDE8704059
:100D1000FFF7BCBFA4940000F01100208C04002059
:100D20002DE9D34FDDF82890BDF82CA004460F46DE
:100D300090461E46FFF75AFA8346BBF1000F01D0DA
:100D4000BC4205D94FF6FF74204602B0BDE8D08FF3
:100D50009BF808309E421CD1DBF804003246414625
:100D600008F056FAA8B9B9F1000FEDD00DF1020262
:100D700001A95846FFF7FBFD58B9019949B1BDF8E3
:100D80000230534505D15246484608F041FA002842
:100D9000DAD00134DBF800B0A4B2CEE738B50C46A7
:100DA00011462568AD1A2A46014408F041FA25602B
:100DB00038BD000001282DE9F34740F045818B88BC
:100DC000012B40F043810B681C7814BBA14BA24D52
:100DD0001C60A24B1C70A24B1C60A24B1C60A24B5F
:100DE0001C60A24B1C60A24B1C70A24B1C60A24B4F
:100DF0001C60A24B1C702B78022B01D1FFF700FE68
:100E000001232B709E4B00221A70204602B0BDE8D1
:100E1000F087032C40F00681904B8F4E1C78002CFD
:100E200056D13378002B00F0F180914B1B78082BC2
:100E300002D0402B40F08C80DFF81882D8F80000F8
:100E400090B9904DD5F82838A3F17E63A3F584338B
:100E5000B3F5104F5CD34FF4017041F20803984290
:100E600000F0D680802433E010F003071CBFC7F1E8
:100E70000407FFB200EB070ABAF5806F00F2CC80DE
:100E8000814BDFF8F0913A46FF21184408F0B0F9A1
:100E90007E4AD9F800301268C8F800A00AEB0301B6
:100EA000914200F2BD806E4A15681D445544DFF83A
:100EB000BCA125F4FF65DAF8000025F0070585429E
:100EC00010D9291A00F50060FFF722FA40B18524F5
:100ED0003378022B01D1FFF793FD0023337094E7A1
:100EE000CAF80050D8F80010D9F80000FFF7DCFC71
:100EF000D9F80030D8F80020564913440546DB1BCA
:100F00006148C9F80030FFF749FF002D99D0DEE7AE
:100F1000FFF78CFC0028A0D1D5F828280190A2F179
:100F20007E63A3F58433B3F5104FD0D2126BA2F1D8
:100F30007E63A3F58433B3F5104FC8D293690121C2
:100F400001A898470028C2D14C4B01221A70BFE774
:100F5000002B5FD04A4B1B78002B83D0464F3B6859
:100F600043B9414B4A4918681022FFF7B3F90028EA
:100F7000AED0ACE713F003021CBFC2F10402D2B240
:100F80009D18B5F5806F47D84248DFF8D880FF211B
:100F9000184408F02DF9404A404BD8F800103D6045
:100FA0009B1A3F4A13443F4A13408B4236D83E4B6C
:100FB000D3F8F8309BB29B020D44A3F580539D42B9
:100FC0002ED8DFF8A890D9F800001540854209D93D
:100FD000291A00F50060FFF79BF900287FF477AF2E
:100FE000C9F800503A682B49D8F80000FFF772F9A9
:100FF000D8F800303A682049054613442548C8F817
:101000000030FFF7CBFE002DABD060E781245FE717
:1010100086245DE784245BE7822459E7872457E729
:10102000832455E7042C13D1204813230221437055
:101030000170FFF7DBFC1E4A1E4B128905329A80B5
:101040001D4A1A6042789A710024DEE60D24DCE61F
:101050000624DAE6F40A0020FA0A0020F90A002041
:1010600050120020FC0A0020800D0020A811002052
:101070004C010020000B0020841100205F010020A3
:10108000F80A00200000E10FF406002054120020AE
:10109000700D0020840D002010000020C8000020EA
:1010A00037BF000000F8FFFF0081E00F640D002053
:1010B00044060020500D0020CD0A00002DE9F84F15
:1010C000DFF85091494BD9F80060DFF84C81871B5D
:1010D00082464748C8F800701B1A4648034423F468
:1010E000FF6323F007039F42144678D3424BD3F8A3
:1010F000F8309BB29B020AEB0205A3F580539D4298
:1011000070D83444B4F5806F03D93C4B82221A70F6
:1011100063E0DFF8FCB00BEB060008F05BF8384B3F
:10112000C9F800401A6822B9332C56D9DBF83420AC
:101130001A60186887421FD885421DD900F1100334
:101140009D424AD30644A6EB0A065E442D4A334626
:1011500006F1100153F8040B42F8040B8B42F9D14D
:101160002848FFF7EFF810B9244B8422CFE710226C
:10117000FF21304608F03CF8234E244B306804F041
:1011800003042D1B1D4058B907EA0300C0F5006198
:101190002944FFF7BDF8356040B1184B8522B6E70A
:1011A000A84203D2291A00F50060F2E7D9F800201E
:1011B0001749D8F80000121BFFF78CF8D9F8002067
:1011C000D8F800301349121B054613441048C8F8DC
:1011D0000030FFF7E3FD002DDFD1BDE8F88F074BAE
:1011E000872294E7054B832291E700BFC8000020C7
:1011F0001000002037BF00000081E00FF90A002036
:10120000800D0020700D0020A811002000F8FFFFC5
:10121000840D002084110020FC0A002037B5002333
:10122000114C0093437A6060D0E90021206802F0FD
:10123000D4FC238CDB050CD563680C4D1B7A2A7813
:101240009A4206D0012B06D0022B08D063681B7A85
:101250002B7003B030BD206802F09AFCF6E72068DE
:1012600002F09CFCF2E700BFAC110020A1060020B8
:1012700013B50D4B0D4C1B8BADF804300128ADF8A8
:10128000003004BF02238DF8043001A908BF0423F5
:10129000206808BF8DF8003002F0A0FB2068694686
:1012A00002F0B2FB02B010BDA4940000AC1100200B
:1012B000034B00221A6118680122032102F0CEB804
:1012C000AC11002010B5164CA37E5B0626D4FFF7A8
:1012D000EFFFA18C226840F2E24303FB012222606F
:1012E000A37A94F84F2013442522B3FBF2F002FBBB
:1012F00010332289A3720132636822810A2202FB21
:1013000001336360238B5A1E22833BB9A27E42F0D5
:101310004002A276034A1370FFF7B2FB10BD00BF74
:1013200044060020A00600207FB502238DF8063079
:10133000064B5A8B596918680332ADF804206A4687
:1013400002F0E4FB009807B05DF804FBAC1100204C
:1013500010B51E4C1946236986B023B3A2F10800CC
:10136000084322D101AA0321206802F0CBFB636865
:1013700060615B7A23769DF80430DA1F5342534153
:10138000627E63F30002039BE361BDF80630627680
:10139000638304F118010220236998472068012221
:1013A000002102F0B5FB06B010BD02F17F40014301
:1013B00005D10021012006B0BDE81040184712F405
:1013C000A0411ABF00210320FF20F4E7AC11002048
:1013D000F0B5194C194D87B0637A0133DBB2272B76
:1013E00088BF252320466372FFF718FF627D1449EA
:1013F0002868E768667C4FF40073023202F064FBF1
:101400006B68104A5B7A06F00106D15C03913046A6
:10141000FFF72EFF0123002205930399286800920D
:1014200004AB049702F01EF810B1FFF741FFD3E7B9
:10143000054B2B6107B0F0BDE4000020AC1100208B
:10144000F800002075950000FD140000F0B5254C53
:10145000A37E5A0687B040D4234A218923F007038C
:1014600043F00103A37613681BB192888A4200D12E
:101470009847A37A1D48234493F82A306375FFF7F1
:10148000CDFED4E900561A4C1A4A63685B7A770895
:10149000D15C0191A5EB56060120FFF7E9FE64350A
:1014A00002964FF4807300260199ADF814303D4444
:1014B00002AA2068049533468DF80C608DF81660FA
:1014C00001F0DCFF012205463146206802F020FBD6
:1014D0002DB1FFF7F7FEFFF7B9FF07B0F0BD064BE0
:1014E0002361FAE744060020500D0020500600203A
:1014F000AC110020759500006516000002282DE94A
:10150000F0411DD002D8012807D0FEE7032800F0E3
:101510009E80FF2800F09B80F7E74E4C637C990784
:1015200007D5FFF7C5FEFFF753FF637C6FF3410359
:101530006374637CDA0768D4BDE8F041FFF748BF05
:101540004B78DB0740F183804C68227802F00F086B
:10155000B8F1030F5BD0B8F1050F78D13E498B7B12
:1015600003F00103B3EBD21F4FD10622083104F17F
:10157000080007F04DFE0646002846D1FFF798FE0A
:10158000FFF7D2FE354D314607465C22284607F06C
:101590002FFEAB7EA5F8188043F02003AB76627E69
:1015A000237E43EA0223AB84627F237F43EA022344
:1015B000EB8494F82330C3F3040385F84F3094F898
:1015C0002330C3F3421385F8503004F11E001B236F
:1015D0002B85FEF749FFD4F80E30E27CEB60A37C4C
:1015E0002F6043EA0223227D607D43EA02432B61A0
:1015F000012695F84F30AB722E75E18A3144FEF723
:101600006FFFFFF723FF164B1E70BDE8F081124DF0
:10161000AB7B03F00103B3EBD21FF6D1062205F139
:10162000080104F1080007F0F3FD0028EDD1094C92
:10163000286894F83D204FF40073023204F13C0115
:1016400002F042FA637C43F002036374DDE7FFF7C4
:101650002FFE71E7E4000020AC11002044060020BA
:10166000A006002002282DE9F34780460C460BD047
:1016700003D8012800F0AE81FEE7032800F0B08116
:10168000FF2800F0AD81F7E74B78AB4D13F0010375
:1016900000F0BC804A68AF7E117892F80090C1F3E8
:1016A000001161F38207AF76C9F3C001C7F30017D9
:1016B000B94240F0A88009F00301022900F0A1809E
:1016C000032918D0012940F09E804FF0000A567877
:1016D00096B19A48818AFEF74DFF0B1A9BB2BAF178
:1016E000000F04D0022B86BF023B9BB200239E4218
:1016F0008CBF002301231E46A97EC9F38009C1F3D4
:10170000C002914508D082F00102D20042F02002CE
:1017100021F028010A43AA762BB1AB7E87F001079E
:1017200067F30413AB76AB7E854F13F0200F11D017
:10173000696D6FF34513AB76002969D03B7895F856
:1017400058207A7043F003033B70B81C07F042FD49
:1017500000236B657B487A49FEF70CFFAB7E0038AF
:1017600018BF012060F34103C3F3C002AB76C3F39B
:1017700000139B0043EAC20343EA00103B787A78E7
:1017800023F01C03184338706F4F02324FF400737C
:101790003868D2B202F098F9AB7E6468D90709D5EF
:1017A0006FF30003AB7600236B60FFF7BDFD28608D
:1017B000FEF7AAFE002E00F0A180237803F00303B9
:1017C000022B05D0032B3DD0012B40F09780002643
:1017D0005A486578818AFEF7CDFE081A80B226B194
:1017E000022886BF023880B200208542ABB200F2E8
:1017F00085805248A21C314602B0BDE8F047FFF791
:101800000DBA9A4663E70026334675E71E468AE717
:1018100095F828304B48BA1C0DF10701FFF79BF9EA
:1018200010F0FF000BD09DF80730002B08BF4FF0E1
:1018300001083B78787068F301033B708AE74FF04A
:101840000108F6E7A3780C2B0AD80C2B0AD8DFE89E
:1018500003F03F2B58090909090960090909180013
:10186000142B7FD0394A12782AB1162B00F09680BB
:10187000182B00F0A2803648072202704370022124
:101880000DE033480C234FF0FF3203700123437007
:101890008270037102220023C2704371062102B0DC
:1018A000BDE8F047FFF7A2B8617A237A294A43EAF4
:1018B000012393801346284943F8061BD4F80310EC
:1018C000C2F80610B4F807209A80627A9A7115E07F
:1018D000627B237B1F4943EA02238B800B461F4A0E
:1018E00043F8062BD4F80320C1F80620D4F80720CB
:1018F0005A60B4F80B201A81627B9A7202B0BDE87C
:10190000F0872A89134B05329A80154A1A60E278CB
:10191000DCE7D4F803303A8C0D48134003F0FF03A2
:1019200022F0FF0213430246092102F8011BC0F80E
:10193000013000235360B2E7440600201C0B002056
:101940005C120020340C0020AC1100204C0D002053
:10195000640D0020500D0020CD040000450500005E
:10196000CD0A0000B4F80530B4F803202048DB08A5
:10197000934228BF13462B85152300216FF00404E2
:101980006FF0270203700723817081714470C27069
:1019900003714471C2710372092180E72279E378EF
:1019A0001348134003F00303022B18BF012317222F
:1019B000027043708370032171E76279A1790D4B46
:1019C00042EA01229A800C4A1A60D4F80320C3F834
:1019D000062093E7094B9B7E9A078FD45B078DD433
:1019E000FFF770FC02B0BDE8F047FFF72FBD00BF66
:1019F000640D0020500D002051040000440600201A
:101A0000EFF3108072B670470048704700F049024B
:101A10000E49D1F8942002F00702042A0BD8022ABA
:101A20000FD811D10A4BD1F80001C0F304200130C6
:101A3000B3FBF0F07047074B0748052A08BF034681
:101A4000F1E74FF40043EEE7024BECE700400E40B5
:101A500000F04902C0EA210160F5900008B5FFF7E7
:101A6000D7FF044BD3F80831C3F308230133B0FB8D
:101A7000F3F008BD00400E4013B502460C46FEF7D9
:101A80009BFDF0B122B9104BD3F80031FFF7C0FF36
:101A9000FEF792FDA8B1FEF7A5FD90B10A4BD3F871
:101AA0000031FFF7B5FF094B40221A611CB10190CC
:101AB000FEF78CFD0198002102B0BDE81040FEF752
:101AC000F5BD02B010BD00BF00400E4000300E401A
:101AD000044B054A9A60D3F8882042F47002C3F898
:101AE0008820704700ED00E00000000008B5FEF718
:101AF0006BFB704747F6FF739A42F0B56BD0022933
:101B00006BD8374E06EBC10416F83130A0780128A7
:101B100038BF0120012B4FEAC107054613D1E378F6
:101B20001B1A0020984202D3E818C0B2F0BD191A5F
:101B3000A3EB5101666836F911609642CCBF01F102
:101B4000FF330846EEE760680028EFD0B0F90030B8
:101B50009A4204DCB0F902309342B8BF134682883F
:101B6000FF2A04BFB0F90640B0F908C03E4417BFD1
:101B7000C824012100214FF0280CE21A747892FB4E
:101B8000FCF20A4412B2944201DD002A01DA621E1C
:101B900012B24FF47A7700EBC2060132F188B668D0
:101BA00012B213FB016121EAE171944201F15C017F
:101BB000B1FBF7F104DD00EBC206B688B142EAD909
:101BC00000EBC20232F8040C884228BF0846A84243
:101BD00038BF2846A9E7FF20A8E70020A6E700BFF6
:101BE0008811002038B5C0F30323013B04460D469D
:101BF000092B1CD8DFE803F033231C1B0526291B07
:101C00002C30184B0022C4F3043442B11649D1F8E9
:101C10004401C00703D4D1F840010242FBD103F1D3
:101C2000424303F5801304EBC3039B001D6038BDE2
:101C3000FFF714FFFEF7E0FC0C4B0022E3E70C4B30
:101C40000022E0E70B4B0122DDE70B4B1022DAE725
:101C50000A4B4FF48032D6E7094B0022D3E7024B00
:101C60000022D0E7B0400E4000400E40B8400E4089
:101C7000C0400E40E0400E40E8400E40F0400E40B4
:101C800050410E402DE9F84F424D434F95F800A0CA
:101C9000814688461646BAF1000F3ED13F4A404C75
:101CA000D2F8F8303F489BB29B02A3F580532360E3
:101CB000D2F8F8309BB29B02A3F500636360012168
:101CC000FFF790FF206808210430FEF7ABFB236884
:101CD0001B68984208BF2368606808BFD3F804B047
:101CE0004FF0080100F104000CBF4FF0010AD34689
:101CF000FEF798FB63681B68984205D163685B68D0
:101D00005B4506D8002305E0BAF1000FFAD1FF23A6
:101D100000E001233B7001232B7097F900305A1C1F
:101D200028D01F4ADFF880A052F823700C373D46B8
:101D30004FF6FF7BC5F30A030833B3F5006F19D2E2
:101D4000AB885B4516D0A979281D0431FEF76AFBE4
:101D50002B68EC889842E4B202D1AB884B450CD09A
:101D6000033404F4FE740834254487EA050313EAB7
:101D70000A0FDFD0002030700AE03378A342F9D395
:101D8000224605F10801404607F024FA347001208C
:101D9000BDE8F88F58120020100000200081E00FED
:101DA000B806002000650A0000F8FFFF2DE9F04F9B
:101DB000012891B004D00024204611B0BDE8F08F76
:101DC0008A88002A00F01B82AA4F97F800A0BAF177
:101DD000000F00F01682A84D2C78002CECD1DFF813
:101DE000CCB29BF80040002CE5D1A44E306802EB49
:101DF0000009B9F5806F02D982242C70DCE7DFF886
:101E000098820968404407F0E5F9BAF1020FC6F874
:101E1000009039D0B9F1030FCDD99948FEF70EFAE9
:101E20000378D8F80020012B46D14368190E012908
:101E300003D1C3F307430A2B46D9924B9A4240F091
:101E4000E7808368DA033DD502233B70FEF7F8FD97
:101E50008D4BD3F82828A2F17E63A3F58433B3F524
:101E6000104F0BD2126BA2F17E63A3F58433B3F54E
:101E7000104F03D2936809A900209847834B099A11
:101E80001A60834B0A9A1A60DFF82492336899F833
:101E90000020082A01D0402A4CD1DFF804827C4976
:101EA000D8F80000096803F0030AC218A2EB0A027E
:101EB0008A420BD98324A0E7724CA2420CBF86242D
:101EC00084249AE7862498E7882496E76F4A17685F
:101ED0001F4407446F4BA7EB0A07186827F4FF67F6
:101EE00027F00707874209D9391A00F50060FEF785
:101EF0000FFA684B08B185247FE71F603168D8F876
:101F00000000A1EB0A01FEF7CFFC3268D8F80030E0
:101F10005A49A2EB0A02074613445F48C8F800304A
:101F2000FEF73CFF002FE6D199F80030002B7FF43C
:101F300042AF01E0002A6DD133687F2B7FF63BAFC3
:101F4000DFF86081D8F8000028BB4F4BD3F8283861
:101F5000A3F17E63A3F58433B3F5104F15D20123AB
:101F6000CDE90A0009A88DF82430FEF767F90A9B2D
:101F70001A0E7BD0012A03D1C3F307430A2B75D96C
:101F8000414BD3F828389B6B9847444B186007F0B7
:101F900037F9C8F800003C4FD7F82828A2F17E6333
:101FA000A3F58433B3F5104FA5D2936A3B4AD8F812
:101FB00000001168984700289DD1D7F82838A3F170
:101FC0007E63A3F58433B3F5104F21D20123CDE90D
:101FD000070032688DF8183006A8D8F800A00392E0
:101FE000FEF72CF9079B190E12D00129039A03D191
:101FF000C3F307430A2B0BD9234B05A9D3F8283881
:1020000000915F6B244909AB5046B847002851D076
:102010008424F2E622490A681A440A601A4AD2F86D
:102020002818A1F17E62A2F58432B2F5104F13D2C6
:102030001C48CF6A184A1C490068B84707463268EE
:102040000E491548FEF7AAFE40F203239F4206D12F
:1020500001238BF80030AFE640F20227EFE740F2B1
:1020600001239F423FF460AF8024C6E64FF4C07066
:102070008BE700BFFA0A0020F90A0020F40A0020CA
:1020800070010020EB17A6030000E10F50120020A2
:1020900054120020A8110020F4060020180B002084
:1020A000000B0020140B0020040B0020F80A002075
:1020B0004C0100209DF8243089F8003023B9059B9D
:1020C00013B1402389F80030FEF75EF9074658B394
:1020D000D0F834A099F80030002B3FF46DAE002208
:1020E000069204228DF8132006A90DF11302352063
:1020F0000393FFF7C7FD069AD30719D5039B082B57
:1021000014D0BAF1000F13D0534610220CA903F1DA
:102110002800039307F07CF820B9039B0A9A1B6AF6
:102120009A4205D8892468E68246D3E7364BECE725
:1021300097B14FF400613846FEF7EAF800287FF4C3
:10214000DAAE2AF4FF604FF4006120F00700FEF7DA
:10215000DFF800287FF4CFAE99F80030082B01D0CB
:10216000402B0FD1294B2A4A186820F4FF6323F033
:1021700007034FF400611360FEF7CAF800283FF42C
:102180001BAEB8E6234F244BDFF89C907B60D9F858
:102190002828A2F17E63A3F58433B3F5104FBFF472
:1021A000AAAE936A1D4AD8F8000011689847002823
:1021B0007FF4A1AED9F82828A2F17E63A3F5843379
:1021C000B3F5104F18D2D2F82C903368144AD8F8CF
:1021D00000003946C8470746326812491048FEF7E2
:1021E000DDFD40F203239F423FF432AF40F2012372
:1021F0009F423FF4E1AD37E740F20227ECE70D24C0
:10220000DAE58124D8E500BFFC94000050120020DC
:10221000A8110020040B0020BD100000180B0020A6
:10222000F4060020F40A00200000E10F00F00F0087
:102230000138072844D8DFE800F0040F1943232DA4
:102240004335244BD3F8943003F00703023B052BAE
:1022500038D8214AD05C70471E4BD3F8803003F049
:102260000703013B032B2FD81C4AF3E7194BD3F884
:10227000843003F00703013B032B25D8184AE9E714
:10228000144BD3F8883003F00703013B032B1BD812
:10229000144ADFE70F4B1B6F13F0010F0CBF072031
:1022A000092070470B4BD3F85C3103F03003202B2F
:1022B0000CD0302B0CD0102B14BF012007207047FE
:1022C00000207047052070470120704704207047A8
:1022D0000820704700400E40C8940000CE940000D3
:1022E000D2940000CE9400000428F8B56CD8474B77
:1022F00013F800C0464B1D5C464B002970D0464C7D
:10230000022834F8106060D15C6A14F0300F5CD1A0
:10231000424CE46B5C6AE40705D55F6A27F030073E
:1023200047F010075F623E4C3A4B25441E66AD00F5
:102330002B68002BFCD0002A46D06444A4002368FC
:10234000002BFCD002283FD100293DD0314B5A6AE6
:10235000D1073CD54FF48062C3F8A82020225A66EA
:102360005A6A12F0300F0CBF4FF440024FF40002D3
:10237000D3F8901032EA0101FAD1520201D5D3F814
:10238000A030244D012200210220D5F89C70FFF7D7
:10239000ABFFD5F890306A6A224B22F0300242F04F
:1023A00010026A62C7F30A07296BFA0903320F2A7F
:1023B00003EA010328BF0F223B4343EA02732B6366
:1023C0002E662368002BFCD0F8BD0021ABE75A6ACB
:1023D000D3F8902002F44002B2F5400FF8D1CEE7D6
:1023E000114931F810101966012101FA05F5D3F8E9
:1023F00090102942FBD1002AE6D00124054A04FAB4
:102400000CF4D2F890302342FBD1DDE7D6940000E3
:10241000DB94000000400E40E094000000300E40CD
:102420008004F21000F8FF0FEA94000010B50021BC
:102430001048FFF721FB1048FEF7DEF80122114695
:102440000220FFF751FFFEF71DF9FEF7BFF80B4B17
:1024500002225A67FFF7DCFAFEF7CEF8FFF7FEFA22
:102460000446FEF7BFF801462046BDE81040FEF7DF
:102470001DB900BF00F049020148E80100400E40CC
:1024800000B962B6704700002DE9F0410D4F0646D5
:102490000D4614460CB9BDE8F081EFF3108872B612
:1024A00023462A4631463846FEF7B8FB03464046E7
:1024B000FFF7E6FF002BEDD0E41AA4B21D4400267E
:1024C000E8E700BF340C002013B5002301F1080435
:1024D000ADF80430ADF8060021461A4651F8080C54
:1024E000083170B90BB1ADF8042004220DEB0201E4
:1024F00001200834FFF7C8FF54F8101C39B902B0A6
:1025000010BD51F80C3C1A4492B20123E6E734F8AE
:102510000C2C0020EDE700007FB50130002380B2D5
:10252000CDE90101CDE904336946044B0093042051
:102530000392FFF7C9FF07B05DF804FB58010020C4
:10254000EFF3108072B67047FFF79ABF064A074B49
:10255000D3F88039136F23F007031843044B106737
:102560001888FEF7FDB800BF00300E400000C643DB
:10257000C0060020000000002DE980487A4B5B680F
:102580005A05A5B024D44FF0005300221A601CA8AD
:10259000FDF754FEFDF7F8FE08B3446BFEF750FA62
:1025A0001E9B5B0740F1BC80FDF7EEFEFDF782FE4F
:1025B0000446FEF725FA94B1FDF7E6FE0446FDF762
:1025C000E3FE6A4B986023689D466368984706E07F
:1025D0004FF000531A68022AD5D100221A60BFF3C7
:1025E0005F8F624B5A6A22F480325A62D3F8942089
:1025F00022F00102C3F89420BFF34F8FBFF36F8F17
:102600005B495C4F0A685C4DC3F898204FF000505E
:10261000C3F89C005948C3F8A000AF4202F1010082
:1026200008604FD07E1E731B43EA530343EA9303B3
:1026300043EA131343EA132343EA13430133B3F585
:10264000807F38BF4FF480735C422C4003EB040C56
:10265000674500F28780072BACEB07074FF0010CB2
:102660008CBF4FEAD30E4FF0200EB7FBFEF70CFAEB
:1026700007F7013F2D1BFFB2361BB3FA83F3B6FBFE
:10268000FEF6B5FBFEFE66440CFA0EFC07FA06F6F3
:102690000CF1FF3CC3F11E034CEA06065B0006F09A
:1026A000FF0603F03E0343EA0623304D43F0407338
:1026B00043F001130232C5F89800C5F89C40C5F8F4
:1026C000A0300A60BFF35F8F284B0522C3F8942027
:1026D0005A6A42F480325A62BFF34F8FBFF36F8F52
:1026E000BFF34F8FBFF36F8F254B01225A64254BE9
:1026F000D3F8FC20244B120E48D14AF6E851C3F817
:102700009011D3F8981141F00401C3F89811C3F85F
:102710009021D3F8642142F40052C3F8642137E0D9
:1027200014B9FEF76DF95AE7164AD2F8F8309BB2A1
:10273000B4EB832FF5D2D2F8F82004F1500392B213
:10274000B3EB822FEDD82046FDF7FCFD0028E8D042
:10275000636913B9FEF754F92EE79DF87030012B29
:10276000F8D121E75B006FE700500E4000ED00E07C
:10277000EC110020C0000020C0000020390001132F
:1027800000000E400081E00F00300E40012AC0D052
:10279000B84A136A23F4441343F488131362A2F56E
:1027A0008042136843F480731360B34BD3F8A421C1
:1027B00042F4F842C3F8A42102229A639A6B02F011
:1027C0000F02022A40F0EC80DA6C22F0405222F034
:1027D000010242F00102DA64D3F8EC2042F44072C4
:1027E000C3F8EC20A54A0F211180DA6E42F0807206
:1027F000DA66A34BD3F8800900B10420FFF7A6FEE8
:10280000A04B9D4DC8221A809F4BA0220F20002470
:102810001A80FDF7A5FF9D4BAB65CDE91444CDE9CA
:102820001C449B4BD3F81832C3F30722DBB21E9231
:102830001693EE6CC6F30176224633461CA914A803
:10284000FDF744FFD5F8EC50C5F3012522462B4691
:102850001DA915A8FDF73AFF1E98169B4FF4167296
:10286000C11A5143B1FBF2F29B1828BF01249842D0
:10287000C0F09680002C40F093801D9A159C4FF478
:102880001677101B7843B0FBF7F024182CBF0121FA
:102890000021A242C0F08480002940F081801C9871
:1028A0001499421A7A43B2FBF7F289182CBF01221D
:1028B0000022884274D3002A72D16F48C26D22F47C
:1028C000FE4222F0020242EA0322714BC265022E4E
:1028D000D3F8302200F0FA80032E00F0FA80012EA7
:1028E00014BFD2B2C2F30722120312F4702F57D1D1
:1028F0006148C36E23F470431A43654BC266022DD0
:10290000D3F8302200F0E780032D00F0E780012D9E
:1029100014BFD2B2C2F30722120312F4702F3FD1B8
:10292000554BD3F8EC0020F470400243C3F8EC2080
:102930005A6EA14238BF2146E72922F4FF7228BF10
:10294000E72122F0010242EA41025A66DA6B42F4C0
:102950008062DA634AF6E852596B5A639A6FD70776
:10296000FCD41B6C464A13F0030300F0F5840123EA
:10297000C2F8B43A404B9A6FD607FCD41A6C22F0D6
:1029800003021A649A6F12F00102FBD13C4801293C
:10299000C0F8B42A08BF5A63394B0122C3F8942700
:1029A000344C3C4E1120FFF741FC00210220012253
:1029B000FFF79AFC636A23F001036362364B00253C
:1029C000C3F8A054A36A23F0070343F00603A362ED
:1029D000324BE362226B324B02F07F62134323637C
:1029E000304B6363FFF722FD234B304601211B6808
:1029F000FFF742F8FDF7F6FD01463046FDF756FEBB
:102A0000D4F80001C0F304200130B6FBF0F0FDF76C
:102A1000F3FD012211460220FFF766FC636A224E95
:102A200043F040536362D4F8C83043F00103C4F864
:102A3000C830174BD3F8D830B365042406AA08A9C8
:102A400035208DF818400895FFF71CF9089A8DF885
:102A50001640062312F4803F8DF8173009AC40F081
:102A6000A6820DF1170221462C20FFF70BF9002852
:102A700049D01BE000400E4000300E40C006002050
:102A80000000C643C2060020C4060020372110B74C
:102A90000081E00F00F049020000C843200005005B
:102AA00007450BD047A00200005008400DF1160268
:102AB00007A93C20FFF7E6F818B19DF81C0000F0CC
:102AC00001009DF82A3060F3000318E0C2F30742CA
:102AD0000AE7120E08E7C2F307421DE7120E1BE7D2
:102AE000B16D02F8011B013BFAD29DF8293063F069
:102AF0003F038DF829309DF82A3043F001038DF80B
:102B00002A30C34B5C60C34BC34A9A6000274FF422
:102B100080715961C3E900221F82C04BC04A5961CC
:102B2000C048C14D1F82C3E900229A6000F0CBFC6F
:102B3000BD48BE4CBE4E00F091FF0FCD0FC495E8CE
:102B40000F0084E80F00BB48BB4B03603946BB4B0A
:102B5000436000F05DFCACA3D3E900233060CDE915
:102B600000234FF0FF334FF0FF3200F04FFF0222FF
:102B70004FF0FF313068A64C00F04AFF0DF1700AAB
:102B800094223C23CDE91C321E9351469623306893
:102B90001F93CDE92077229700F01CFD3746A84906
:102BA000306800F04AFF306800F0EFFFB4F9001021
:102BB00057F8080B00F056FF6468002C40F0F981CC
:102BC0003846FDF7E5FCB37B64F30003B3739D4B1C
:102BD0009D4C9E4DDFF8FC924FF0200883F8018356
:102BE0005C2283F80483002183F8068304F1080043
:102BF00083F8078383F8058383F8088383F81D83AC
:102C000006F0F6FA42F21073E360914B914AC4E980
:102C1000005342F2015323814FF490733384012314
:102C200013708D4D8DF814300022C9F800201B223E
:102C30002A800DF1150105AA3E20FFF723F8112384
:102C40000DF113020FA936208DF81330FFF71AF893
:102C50000DF11202514639208DF81280FFF712F85B
:102C6000002837D17D4B9DF8132018681B791C90E4
:102C70008AF80430002A00F0A3811B2A28BF1B22F7
:102C8000531D8DF812300FA9531C0DF175008DF8EE
:102C9000733006F09FFA14A8FDF77AFC704A9DF88D
:102CA000123012882AF8032024A99A1C51FA82F2C1
:102CB0001498BDF8541042F8200C22F81C1C03F1A3
:102CC000080224A951FA82F20933002102F8201CDB
:102CD0008DF8123020230DF1110214A93A208DF83D
:102CE0001130FEF7CFFF48B95E4B5A8B1B7F8DF832
:102CF00052300323ADF850208DF811305A4B5B4809
:102D000000224FF00208C3E90022594B036080F80B
:102D10000480FDF75BFE5748574B03601023037296
:102D200080F80480FDF7B2FF5448554B0360554BC3
:102D300080F80480C36080F80880A0F81080CDE996
:102D40000038434690E806001430FDF7D3FD9DF8A7
:102D50001310002900F03F810FA8FDF7C1FF4A487A
:102D60004A4B03604FF0100880F80480FDF72EFEF8
:102D70004748484B484A03604FF6FE7B08230372DE
:102D8000C260A0F810B080F80480FDF77FFF4348D0
:102D9000434A02600C220272424AC260A0F810B09C
:102DA00080F80480FDF772FF3F48404A02604FF010
:102DB000020B3F4AC2600823038280F8048080F837
:102DC00008B0FDF763FF3B483B4B03603B4BC360E0
:102DD0000123038280F8048080F808B0FDF756FFD5
:102DE0003748384B0360384BC3604FF6FE7303829D
:102DF00080F8048080F808B0FDF748FF3348344B72
:102E0000036069E0AFF30080085500510000000046
:102E100068010020340C00204C0C00201C0B00200A
:102E2000340B0020690345ECB095000088110020A8
:102E3000AC110020DC11002051130000D011002043
:102E40001400002000E100E0E4000020D6BE898EDE
:102E5000555555004C0D00205401002011940000E0
:102E60001B940000A4940000A4060020101200206F
:102E70001E940000E404002021940000C8060020F5
:102E800024940000C2940000301200202794000017
:102E90003C05002038940000B50D0000940500208A
:102EA00049940000AD1D0000DC0300205A9400008E
:102EB000F4940000EC0500206B9400007495000071
:102EC000340400207C940000910200008403002060
:102ED0008D94000080030020B54BC3604FF6FE7355
:102EE000038280F8048080F808B0FDF7CFFEB14B74
:102EF000B14A1A604FF6FF729A809DF81220202A7C
:102F000005D8931DAD486375514606F063F99DF8E9
:102F10001120202A06D8931DA94884F83D3014A911
:102F200006F058F9FEF7C4F9227C617CB2FA82F30C
:102F30005B0963F30001237D617462F30303B27BD9
:102F400002F0010262F386132375637D0BB9062339
:102F500063759C4BB988B068C4F81600998094F8E2
:102F60003C30042161F3030362F3861384F83C30A0
:102F700094F83D3013B9062384F83D30924BB06885
:102F8000BA88C4F83E009A80FEF722FA8F4E904B22
:102F90001B782BB1DFF848824046FDF7EBFAE8B921
:102FA0008C4A136923F00403136130BFEFE7224614
:102FB00099E52068B060A288A379BB71BA8006E663
:102FC00008238DF81230844B1A889B78ADF8752051
:102FD0008DF877305FE680480321BEE6EFF310847A
:102FE00072B600231A460DF119014046FDF7B3FDF4
:102FF0002046FFF745FA9DF8193013B10023C9F8B0
:103000000030D9F80020EFF3108472B6C2F50173D6
:103010009BB232440DF119014046FDF79CFD034679
:103020002046FFF72DFAD9F8000018440328C9F804
:103030000000B1D93488231D9842ADD307D87088D9
:1030400004284FF0000306D0062800F07B810023FF
:10305000C9F80030A0E732796B8004F1FF3A122AF8
:103060001FFA8AFA18D8012A19D9931E5B4F102B20
:1030700015D8DFE813F0160014002C0014004600E9
:103080001400F40014007A0014001400140014005A
:10309000140021011400C700522A00F0CD8006223E
:1030A000A7E0BAF1020F40F04B81B6F805400022CC
:1030B000B4F5007F28BF4FF4007403231146504637
:1030C0003B70A7F80140FFF727FA2C80BFE7BAF161
:1030D000040F40F08E80B6F80540A0B2FDF786F8E8
:1030E00060B1027A7C80022A4FF005010CBF0123F7
:1030F0000223397041687B70032055E06C800A22FE
:1031000077E0073CDFF8DCB0CDF800B0A4B2019462
:10311000B6F80710B6F805000223ABF10202FDF77E
:10312000FFFD4FF6FF7A5045044604D17368C3F3A0
:103130000F236B80E3E700230130CDE90033ABF1CF
:1031400002020223514680B2FDF7EAFD50451CBF42
:1031500000F1FF3080B207233B70A7F80140A7F8C9
:1031600003000022114604201EE0BAF1020F40F0D5
:10317000E780B6F80500FDF739F8002858D0037B42
:10318000990731D52B88013BADF81A300DF11A02A1
:10319000B6F805000BA9FDF707FC024628BB0B2378
:1031A000BDF81A200B993B70FFF7B6F94FE700BF47
:1031B00001040000AC060020A4060020000100204D
:1031C00028010020FA000020220100207C010020BC
:1031D000A006002000ED00E0179400005801002038
:1031E0001C0B00208701002052467368C3F30F2395
:1031F0006B805B4B30796988587001241C70598052
:103200001A71AEE7B6F80500FCF7F0FF80B1037B5A
:103210001A070FD5E21E92B25249B6F80500FDF723
:103220008DFB02460028E0D113233B700146BBE72B
:103230000122DAE70322D8E7B6F80500FCF7D6FF4B
:1032400000283FF404AF037B5B077FF500AFE21E6D
:103250004449B6F8050092B2FDF770FBF7E6631F2C
:103260009BB2022B01D0102B6AD10022CDE90022A3
:10327000DBB23D4AB6F80710B6F80500FDF750FD81
:103280004FF6FF73984204463FF450AF2B880DF180
:103290001A02043B0BA9ADF81A30FDF785FB024674
:1032A00008B16C80A5E7BDF81A200B997C80092332
:1032B0003B70931C7B701FE7631F9BB2022B01D0F6
:1032C000102B3DD14FF0000ACDE900AADBB20393E9
:1032D000254AB6F80710B6F80500FDF721FD4FF6B0
:1032E000FF7B5845039B04463FF420AF0130CDE9F6
:1032F00000AA1D4A594680B2FDF712FD2B88584599
:103300008246A3F1060318BF00F1FF3A0DF11A023D
:103310000BA9204618BF1FFA8AFAADF81A30FDF73C
:1033200043FB02460028BCD1BDF81A200B997C80D3
:1033300011233B70131D7B70A7F804A0052033E711
:10334000042256E7CDE90D33084B0B930BA902235A
:103350000C93FFF7B9F87AE6C2F8B43AFFF71CBB52
:103360005801002083010020850100201100002069
:103370000D4AD2F8E430D2F8E0109B0003F03C0391
:10338000C1F381110B438370D2F8E03003F03F03A7
:103390004370D2F8E830D2F8EC2003F0F003C2F327
:1033A000031213430370704700FF0FE0FEE70000B5
:1033B00008B5FEF78DFB124B12498B4212D3124B0C
:1033C000124900208B4218D3FCF7C4FE186850F84D
:1033D0002240586840F82240013298688242F5D372
:1033E0000C33EAE70022F8E71C6844F822000132B7
:1033F0005C68A242F8D30833E4E70022F8E700BF94
:10340000ECB60000F8B60000F8B60000F8B6000010
:10341000F8B50D4610B900242046F8BD0E4F3E68A1
:10342000002EF8D100F052F804460028F3D038609E
:1034300000F0A8F8204600F072F838B130463E603F
:1034400000F0A0F8204600F065F8E4E7002DE3D096
:103450002046A847E0E700BF5C130020084611465D
:1034600000F0A2B810B504F099FF20B9024BBDE8F6
:1034700010401B68184710BD2800002010B500F050
:10348000C9FA20B9024BBDE810401B68184710BDAF
:103490002800002070470000431E033306D8044B69
:1034A000984228BF1846642838BF6420704700BF80
:1034B00040420F00431E012B03D9031F58425841BD
:1034C00070470120704700F0BEBE0000F8B5054609
:1034D000FEF796FA0E4B1E68074626B93846FEF7E9
:1034E000CFFF344610E0B46884B1237C9C46DB07F0
:1034F0000CD495E80F004CF0010C84E80F0084F820
:1035000010C03846FEF7BCFF2046F8BD3668E4E739
:103510001C0000204FF4A472002105F069BE10B514
:103520000021044600F087FA2046BDE8104004F070
:103530003BBD000038B505460C4641B10B6833B1C0
:103540001B68013303D0CB680BB18B684BB900F01B
:1035500078FEBDE838404FF486724121002000F02B
:10356000EFBA084600F072FE044A00231360044AD2
:1035700085F8DC30C5E92343136038BD64130020AF
:103580006813002010B5044618B9054B054A1360AE
:1035900010BD03F053FFD4F89830002BF6D1F4E7B8
:1035A000953400002000002010B50C4603F086FF83
:1035B000054B00215B68032098471CB104F01CFFF9
:1035C0000128FBD110BD00BF2800002004F0D2B8B4
:1035D00004F0E6B808B502460868FFF75DFF08602A
:1035E0004868FFF759FF48608868FFF755FF886013
:1035F000C868FFF751FF0B69C860581C03D00B481F
:10360000834228BF03460B614B69581C03D007480F
:10361000834228BF034688694B61FFF73DFFBDE841
:1036200008408861104604F01DBD00BF40420F00F5
:103630002DE9F84FD0F8903007460E4613B1038BB2
:103640008B4246D0D7F88CB0BBF1000F44D0DBF8EA
:103650000830002B40D0DBF80C20002A3CD0D7F8F3
:10366000A0A0BAF1000F3AD04FF000094D46C8466D
:1036700001E0DBF8083005EBC50403EB84040135F9
:10368000E389B34216D8238AB342384612D3B4F939
:103690001230B7F924109942A04603EAE37250DDD4
:1036A00097F8D010FEF726FA7B7D8342814648D9F1
:1036B000DBF80C209542DCD3B8F1000F29D00023B1
:1036C000424619463846D0473E83C7F8908087F86F
:1036D000D9900020BDE8F88F0320BDE8F88FD146CF
:1036E0005446514647F6FF7504EBC40803EB8808BF
:1036F000B8F80E30B3421AD8B8F81030B34216D327
:10370000B8F91220AA4202EAE27204D14FF0FF098E
:10371000DAE70120DEE797F8D0103846FEF7EAF93D
:103720007B7D834281464146CED9DBF80C200134B3
:10373000A24202D9DBF80830D6E70029E9D0884652
:10374000C2E7A046BBE700BF2DE9F04182B0D0F848
:10375000A08016469DF820208DF8072004460D46CF
:103760001F46B8F1000F2ED000220DF107031146BD
:10377000C0471949194A0D60194BD4F88C101160D3
:103780002046D4F890201A6004F044F905461EB98A
:10379000284602B0BDE8F081B0FA80F04FF47372B1
:1037A0003321400900F0CCF93946204604F052FBA1
:1037B0000C4BD4F890101B680546204698472846C5
:1037C00002B0BDE8F081417D90F8D930994228BF20
:1037D000194604F0B5F8CCE760130020641300200C
:1037E00068130020200000202DE9F04385B0054635
:1037F0000F4614461E4604F0DEFD04F0E5FD0028E9
:103800003BD1DFF82481D8F800301BB1D5F88C20EB
:1038100093421FD004F0F0FD012838D1D8F80030D1
:103820008BB31A687AB3D5F88C1009688A4246D0EF
:10383000D5F890301A68284604F000FB38B9012406
:1038400000963346224639462846FFF77DFF05B0ED
:10385000BDE8F083304B1B68002BDBD0D5F89020FF
:103860009342D7D12D4B1B689F4222D004F0C4FD58
:103870000128E5D04FF001090BE0274B00221A6028
:1038800004F09AFDBDE7D5F88C301968D0E74FF009
:103890000009012003F012FE214B00215B68032088
:1038A000984704F0A9FD0128FBD1B9F1000FB5D06C
:1038B000C6E706B174B9002005B0BDE8F083164A2A
:1038C0001268D2B11168D5F8902012689142B6D032
:1038D0005968B0E7D5F8A04001228DF80F2084B1D7
:1038E00000220DF10F0311462846A0470D4BD5F8D5
:1038F00090101B6828469847DDE7D5F8902012689D
:10390000E6E7697D95F8D930994228BF19462846DF
:1039100004F016F8EAE700BF6813002060130020E7
:10392000280000202000002064130020F8B5054680
:103930000E46FEF765F8314607462846FFF778FE43
:10394000044620B13846FEF79BFD2046F8BD0346ED
:10395000024631462846FFF747FF04463846FEF741
:103960008FFD2046F8BD00BFF8B50D460646FFF7AF
:10397000E1FDEF6800224FF6FF734FF0240CD0B248
:10398000874208D81C4621463046FFF7CFFF00F09B
:1039900062FC2046F8BDA9680CFB0011CC899C4252
:1039A00002D2002CEFD023460132E8E7008B7047AB
:1039B0000A7838B505461046FFF77CFD60B14C78B3
:1039C0002046FFF777FD38B12243530704D4284639
:1039D000BDE8384003F0F8BE012038BDFFF7E8BF6E
:1039E00010B504460878FFF765FD58B14A781046CF
:1039F000FFF760FD30B1042A04D02046BDE8104036
:103A000003F01ABF012010BDFFF7EABF03F0D4BCDA
:103A100003F030BE37B504460D460192FFF786FF2E
:103A200038B9019A2946204603B0BDE8304002F07B
:103A30007FBC03B030BD04F0CFBC38B50446488825
:103A40000D4600F001FCD4F8A0302BB929462046E1
:103A5000BDE8384003F026BF022038BD00F0F5BBBA
:103A600003F0CEBF73B5044600200D4600F0ECFB1A
:103A7000D4F8A06069462046FFF7F2FF5EB99DF8D2
:103A800000102A462046FEF735F80146204603F08E
:103A900083FF02B070BD00231A4629462046B04776
:103AA000F7E738B505460C46FDF7AAFF296BEB6A28
:103AB0000C402343EB62FEF7E3FC00200CB900212D
:103AC00038BD4FF40071FBE704F04DB904F06DB957
:103AD00007B54FF400730A49ADF806300DF1060240
:103AE000FFF7F4FFBDF80630B3F5007F05D10228DB
:103AF00008BF002003B05DF804FB0120FAE700BF17
:103B0000B81400200846114600F0C2BA04F018B9F3
:103B100038B50446154609B104F066F925B12046CA
:103B2000BDE8384004F062B938BD0000024B1960AE
:103B3000024B1860FEE700BF24000020BC160020E6
:103B400008B550B90548064B01601A60054B1A6864
:103B5000054B1A601868FFF7E9FF08BD2400002034
:103B6000B81600205C130020BC160020837C03B133
:103B700008470220704710B5044604F0EBFC2046CD
:103B80000321BDE8104003F071BCFFF7F4BF000053
:103B90000149FFF7EBBF00BF298500000149FFF78E
:103BA000E5BF00BFFD84000010B5837C0C4693B1D7
:103BB0004968002204F0D8FC206890FAA0F0000ABE
:103BC00001F01AFCA17A2089002281F0010104F0A1
:103BD00017FD002010BD0220FCE71FB5CDE9011242
:103BE000ADF80C3001A99DF818308DF80E30FFF7B4
:103BF000DBFF05B05DF804FB002070470020704734
:103C00002DE9F74F05681C4605F007059DF8303093
:103C10000193AB1D01259D400646174605F1FF386F
:103C20000B46A1B1416804EA080BA5EB0B0A41F071
:103C30000059524509EB0B0113D95246184605F0BD
:103C4000C9FA7A1B5A444946504405F0C3FA019B0D
:103C500023B13C4448EA05052C40F46003B0BDE8BC
:103C6000F08F1846F1E700000D4BD3F8E020D203A7
:103C700014D50C494FF48032C3F8E820C1F8EC2089
:103C80009A6BD1B2C2F3072299679A6704229A67A6
:103C900000229A679A679A679A679A67704700BF87
:103CA000001008400010084638B50B4C22606060D8
:103CB0000D46FDF7A5FE0123A3620423A560C4F809
:103CC000E830064B4FF48072C3F88021FEF7D8FB32
:103CD0000DB10223A36238BD0010084000E100E0EE
:103CE000044B1860044B40F6FF72196358635A6521
:103CF000704700BFC0160020001008402DE9F04FAB
:103D0000042A83B005463AD90B7883614B788361E6
:103D10008B788361CB7883610068D5F808B06E68D2
:103D200000F007004FF00108063008FA00F808F12B
:103D3000FF3909EA0B07A2F1040AA8EB0702924532
:103D400001F1040446F000560DD8F0192146524600
:103D500005F040FA0AEB0B0348EA09021340AB6096
:103D600003B0BDE8F08F2146F019019205F032FA58
:103D7000019AA118AAEB080230463A44E8E7013A52
:103D8000032AEDD8DFE802F00B08050211F8013B29
:103D9000836111F8013BAB6111F8013BAB610B781A
:103DA000AB6103B0BDE8F08F37B500250095144630
:103DB000FFF726FF204603B030BD000038B5124C97
:103DC000154670B10122C4F8B8200A4601460F48D2
:103DD000FFF794FF1DB10C4B0422C3F8B82000205C
:103DE00038BD69B1D4F89C208A4284BF0122C4F84E
:103DF000B820054A0223C2F89810C2F8B830E9E7A3
:103E00000123C4F8B830E5E70010084090100840DE
:103E100010B5FDF7F5FD184B184901229A65C3F856
:103E200088201A66164A5A660722C3F884200A8038
:103E3000144900220A804FF4A021C3F8E81003F1CE
:103E4000C0630446C3F8EC100F4B1A600F4BD3F855
:103E500088305B020AD50E4B18680E4B4FF4800277
:103E6000C3F88820416BA43001F0E2FA2046BDE897
:103E70001040FEF705BB00BF001008404A170020A5
:103E8000C8160020481700204C17002000400840AA
:103E90005C130020004008440D4B07221A800D4B94
:103EA00000221A800C4BC3F890204FF40052C3F844
:103EB0009400C3F8B420094AF021116402F10072A1
:103EC000A02111640122C3F8B820FFF7A1BF00BFF1
:103ED0004A1700204817002000100840000008443E
:103EE0002DE9F0410446A0B13B4E3C4FFDF788FD63
:103EF00031883B4B01F07802032C054601F07F0E20
:103F00001A4456D1D7F800C0BCF1000F03D1FEF718
:103F1000B7FA03204BE02CF00104386820F00100D0
:103F2000A0424BD100233B6023886FEA43436FEAF2
:103F300053439442238036D12A4FDFF8BCC03B88DC
:103F4000ACF18008CC18083B9BB202F10801E01AE2
:103F5000614528BF4146082B80B204D9B1F900E081
:103F6000BEF1000F35DB947812881F493B80C2F305
:103F70000C02C0B2CA6304F007043080C866C1F8FE
:103F80008430FFF771FE042C0DD1184BD3F8883024
:103F9000174B1868174B4FF48002C3F88820416B09
:103FA000A43001F045FA2846FEF76AFA0020BDE881
:103FB000F081601E012898BF1446AEE7094873449B
:103FC0000088E31A48BF803308389842ACDC2846A2
:103FD0009DE70A46B7E700BF481700204C170020AE
:103FE000C81600204A170020001008400040084072
:103FF0005C13002000400844481700200E480F4A78
:10400000038812880E491A44073A02F078020A44DB
:1040100008339BB2038090780A4900F00700042817
:10402000C1F8843004D101F540514B681B03FCD426
:10403000054B1A60704700BF4A1700204817002040
:10404000C8160020001008404C17002010B5054C81
:10405000206828B1C30701D4FFF742FF0023236083
:1040600010BD00BF4C170020084B4FF48032C3F83E
:10407000EC2003F17C43C3F8E420D3F88030C3F391
:104080000C03782B01D8FFF7EFBD704700100844F0
:104090002DE9F84304460E46FDF7B2FC4F4B504D58
:1040A0001A8881464F4802F07801032C078802F0F5
:1040B0007F03294417D14C4804688CB9D419073CB4
:1040C00004F078042C442B44E31A48BF8033BB42ED
:1040D00010DB4846FEF7D4F900242046BDE8F883FB
:1040E00024F00104EFE7012C02D0022CEBD1083FB1
:1040F0000C46E8E7002E42D08C4244D13B4AD2F82D
:104100003C803A490F6B07F00707BA1D012797401B
:10411000D1F88020C2F30C029A4247DDB4F9003096
:104120002588002BD5DBA378C5F30C0503F0070326
:104130007A1EA5EB08053A43052B337005EA020504
:104140002CD82DB2E84340F22A420421C00FFFF7D9
:10415000F7FC7580E37833747B1E03EA0808244B70
:104160001B6803EB0802B260AAB218FA85F5BD42DB
:104170008BBFA7EB08070023B780B280F3604846E7
:10418000FEF77EF9A9E7A4F10802AA4238BF04F1BC
:104190007802B2F80080C8F30C08B2E7154BDB6C6C
:1041A000002B0CBF00230823ED1ACAE78A6B1249C3
:1041B0007B1EA2EB08023B4313401DB24A685BB969
:1041C000C2F30362032A0CBF0822002232707380FC
:1041D000D1F890301B0ABEE70822F7E74817002005
:1041E000C81600204A1700204C1700200010084075
:1041F000C01600200000084000400840431C08D0C2
:104200000449D1F83C311B0C1B0480B20343C1F8B4
:104210003C3170470040084010B5044608680A4623
:10422000FFF7ECFFD4F890304BB15B693BB11168FC
:10423000013104BF6FF00101116012681A600020A3
:1042400010BD04F0B8B8704770477047982231210C
:104250000120FFF775BC704738B50D46044600F0E5
:104260008BFFAC4042F2107364095C436423B0FBE3
:10427000F3F0B4FBF0F038BD034B1A689B88026082
:1042800083800020704700BF360000200F4B0228BB
:10429000D3F8883104D183F40010C0F34050704744
:1042A000012805D113F4400F0CBF012000207047F6
:1042B00050B9074AD2F8D40010F0010005D083F4B9
:1042C0008000C0F3805070470020704700400E40CF
:1042D0000081E00F0B4B5B88B3F5E16F8BBF5A2376
:1042E000C8235022782298428CBF172310230B70CA
:1042F000054B1B7823B1904294BF002001207047EA
:1043000018467047360000203400002013B5234BB8
:104310001B78032B04463ED00DF10701FFF7DAFFAF
:104320001E2C8CBF1E491F499DF807204FF001032A
:104330008CBF01240024C1F8083170B1194B4DF62F
:104340000171C3F80411120203F1007342F44042F8
:10435000C3F80421144BA3F8D420134991F8D820B2
:1043600022F00102024322F0020242EA4402D3B2E6
:104370000E4A81F8D83012786AB9B1F8D420A1F881
:10438000D62023F0040242EA800323F0080343EA24
:10439000C40381F8D83002B010BD00BF3600002041
:1043A0000040084600400844001F0021521700202A
:1043B000084B094AD3F88831DB4303F4FE1343F476
:1043C0000053B3FA83F30E33A3EB4313013B137093
:1043D000704700BF00400E403E00002001280CD076
:1043E000022802D020B100207047054B1878704792
:1043F000034B18780430C0B270470720704700BFE5
:104400003E00002002289ABF014B185CFF20704735
:104410007496000030B51F23B0FBF3F35C1CE5B2CB
:10442000C3EB43134FF0FF34AC40C01AE4430130F8
:10443000E4B2C0B21460086030BD00002DE9F7435B
:10444000424E434F96F800901546424AD2F8C82093
:10445000B9F1010F0446884607EA020705D147EA89
:1044600000600C7000232B6040E03B4A12789042C1
:1044700028BF1446002B14BF0423002323440B70D1
:10448000002C48D0013CE4B24FF030632B606A4608
:10449000204601A9FFF7BEFFDDE900302F4A98F85A
:1044A00000C0127847EA006040EA833040F47F5051
:1044B00040F00800002A30D0B3FA83F32849294A93
:1044C000C3F11F035BB2B9F1020F18BF0A46591CB2
:1044D00027D0D75CFFB22A6822F07F41BCF1000FE1
:1044E00021D141F0306141F0040129607288B2F5B8
:1044F000E16F20F47F538CBF5A22C822944223F0EC
:1045000008039ABF180A00F47F5043F6C870184396
:1045100003B0BDE8F083144BB8E7FF274FF0FF333B
:10452000D9E7FF27D7E7013303D07B1EDBB2FD2B92
:1045300006D922F07F4323F0040343F07F4392E740
:1045400041EA076343F004038DE700BF3600002013
:104550003F00C0E0001F00213E0000205517002052
:10456000B883E00FB083E00F0400000B73B504467E
:10457000C820FFF7CBFE2C4B2C4D1878032801D018
:10458000FF2C03D1FF20287002B070BD01282CD170
:10459000072C204628BF072001284FF0000301AA5E
:1045A0000DF1030138BF0120FFF748FF0446204BFF
:1045B000204E019AC3F85821C6F8C8409DF8030060
:1045C0002870FFF7A3FE019A130203F4E06343EAA5
:1045D0001263194AA6F8D03012781AB9C6F8CC403E
:1045E000A6F8D2309DF80300CEE790B9042C14D879
:1045F00003460646201A01AA0DF10301C0B2FFF7D7
:104600001DFF4FF4800304465EB10C4AC2F8083126
:10461000CDE700231E461846ECE701231E46042082
:10462000E8E7074AF2E700BF360000203500002027
:1046300000400840001F002152170020004008469B
:104640000040084408B501F057F8094B094A002812
:1046500008BF1A46136823F47F115B0803F4FE13A6
:104660000B431360044B4FF00072DA6108BD00BFCA
:1046700018410840004108400040084008B501F0DA
:104680003BF8064B4FF4001228B1C3F800214FF05D
:1046900000621A6208BDC3F81821F8E70040084418
:1046A000014B1868704700BF5817002070B50546C9
:1046B0000E46C0B201F00F01FFF7CEFDC6F30311A5
:1046C0000446C5F30720FFF7C7FDC6F303210444E2
:1046D000C5F30740FFF7C0FD204470BD436C012BBC
:1046E00038BF01232DE9F0479A46474B474F9B6956
:1046F000474E484D03F4E073A3F5C0728046464828
:104700005142514102685245444A0FD114788C42BB
:104710000CD198F8D0C03C78A44507D198F816C0C1
:104720003478A44502D1A888BDE8F087B3F5C07FEE
:10473000C0F800A011704CD1D8F8944024B123687F
:10474000082B5AD994F838400F212046FFF784FDF2
:10475000BAFA8AF3002854D0B0FA80F29B1A002BE0
:10476000C4BFC3F10F09D840274BD8BF4FF00F0982
:1047700050454FEA0440C3F8BC0003F1806340F6A3
:10478000FF7288BF09F1FF39C3F8B82003F1007345
:104790004FEA0921C3F8B810FFF788FFA88000F09E
:1047A000EBFC09F01F094FF4FA7304FA09F45C43B7
:1047B00041F66A03B0FBF3F0194BB4FBF0F40A20A6
:1047C00044431C6098F8D0303B7098F81630337032
:1047D000A9E798F8D030022B06D1124B1B78002B9A
:1047E00014BFC8249624AFE7012B08D00D4B1B78CB
:1047F000002B14BFF024B424A6E70024A4E732243D
:10480000A2E72022AAE700BF006008403D00002088
:104810003C0000203600002030000020501700200F
:104820005817002055170020FF290DD00F4B1048B6
:10483000C3F850010B04090503F4E02301F0F871FB
:1048400019430C4BC3F85011FF2A0DD0074B40F20F
:10485000F711C3F85011130103F4F87302F00702C3
:104860001A43044BC3F8502100207047004008440D
:104870000000F70100400846F8B5134B134E1F68BF
:10488000134D384600F004FF3378C4B2A34201D17F
:104890002B78A3B1092C14D80E4B012C195D05D12E
:1048A0000D4B1B78012B01D141F0400101F00F02AB
:1048B00038460909FFF7B8FF002334702B70002039
:1048C000F8BD0024FA21F1E75C1300205317002003
:1048D00054170020779600003600002070B504467B
:1048E00000F0F2FB142200213148324E04F080FC2B
:1048F000314B25781A783149521B18BF01220A70B2
:1049000022681A60C820A2889A80FFF7FFFCD6F8B8
:10491000C8202B4B2B491340C6F8C8302A4BFF2226
:104920001A70D6F8C830294A23F08043022D23F0AC
:1049300017031AD14FF4EE40C2F824014FF48A4213
:10494000C1F82421012243F08043C1F82021194AF3
:10495000C2F8C8301D4B0322C3F85821FFF78CFF63
:104960001B4B01221A70002070BD012D4FF0070073
:104970000ED1C2F80C010620C1F80C011549C2F88D
:1049800008114FF4404143F00303C2F80411DEE77D
:10499000C2F80C010520C1F80C01C020C2F80801C2
:1049A00043F08043812243F00403C1F80821CEE79D
:1049B000C81F0021001F00213600002054170020CE
:1049C0003F00C0E000400846350000200040084499
:1049D00051170020C10040002DE9F0472D4C2E4B0F
:1049E000236000F0C9FB4FF4FA7307464FF47A7660
:1049F000B0FBF6F629482A4A7343190E1B02181811
:104A000041F10001002303F03DFEA0F5807305464F
:104A1000A36220B962222B21FFF792F801254FF4FF
:104A20007A726A434FF0000A53465008310203F08D
:104A300029FE1C4B19601C4BB7F57A7F4FEA0568BD
:104A40008946044618604FEA152505D272222B21AB
:104A50005046FFF775F801264FF47A71A8FB01085C
:104A60007308C01801FB05814FF0000341F10001FC
:104A7000324603F007FE0D4B023419600C4B49F12E
:104A80000009A408186044EA8974024B013C1C63C5
:104A9000BDE8F087005008400211010020A1070086
:104AA00040420F00701700206C170020681700208C
:104AB00064170020044B4FF00052C3F880211A60A5
:104AC000024B01225A60704700E100E000500840AC
:104AD00038B502010A4B01259D500A4A4FF48073F4
:104AE000834053660446FCF78BFF074A137805FAA8
:104AF00004F423EA04041470BDE83840FDF7C0BC98
:104B00000051084400500840611700202DE9F0478B
:104B10001546044688461E46FCF772FF022D00F03B
:104B2000B8800746FDF70CFD6D4B6E4AD3F8189020
:104B300092F815A0DA6D5FFA8AFA520744BFD3F8EB
:104B400018900AF1010AFDF7FFFC674B674A1B68E2
:104B500011684FEA8A7CA3FB093213F1004301FB81
:104B600009CCD8F800304CEB020C012D04BF013306
:104B70006344ACEB030C08BFC8F80030BCF1804FB5
:104B80000AF0030AC0F09980594AD2F800C0594A85
:104B9000D2F800E0524A23F04041106B4FF0004839
:104BA0000022ECFB01820EFB012282424FEA93734A
:104BB00081BF01330130121A03F00303A3EB0A0390
:104BC000914588BF4649DFF84CC184BF096B03F1AA
:104BD000FF3303F003030CF80430A2EB0900A3B188
:104BE000F10742BF444B41F61F71D966B30742BF7C
:104BF000414B4249D966710742BF394B00211967C1
:104C0000330742BF364B00211965354B04F11001C3
:104C100003EB041E0901CEF80C2111225A50384929
:104C20009A69D3F85CE04FF00108A2EB090908FA91
:104C300004FA0A785FFA8AFA4AEA020281450A709F
:104C400026D34FF48072A2401EEA020F20D11CF836
:104C50000400002840D10DB3F0071A6608D5264B92
:104C6000284941F61F7240F20110DA66C866DA661A
:104C7000B10706D5204B2349204A2348DA66C86687
:104C8000DA66720742BF214B01229A6033071AD4B9
:104C90003846FDF7F5FB0120BDE8F0871C482401EC
:104CA00040F804805A66FCF7ABFE15490B7823EAFE
:104CB0000A0A81F800A0FDF7E3FB3846FDF7E0FBA8
:104CC0000020BDE8F087212000F032F9044B4FF4BA
:104CD00080325A603846DCE71A663846D9E700BFAA
:104CE00000500840C41700206417002068170020F7
:104CF0006C170020701700200050084400001F1F90
:104D000061170020005008460000010100400840E3
:104D1000005108445C1700201030034B0001185864
:104D200000F00100704700BF005008401030044BF5
:104D300001F46001000141F003011950704700BF08
:104D40000050084038B5FDF7FBFB084B084A9D6949
:104D5000547DDA6D520748BF9D69E4B248BF013403
:104D6000FDF7F2FB284604F0030138BD005008406F
:104D7000C417002008B5222000F0DAF8024B4FF4E7
:104D800080225A6008BD00BF00500840064B1B68D7
:104D9000434303EB8171054B1B68A3FB003013F108
:104DA000004341EB000070476817002064170020A3
:104DB00008B5FFF7C7FFBDE80840FFF7E7BF10B52C
:104DC0000446FFF7BFFF844288BF01F1FF31204650
:104DD00001F00301BDE81040FFF7D8BF0D4A10B540
:104DE000146820F0404301464FF000420020E4FBED
:104DF0000320094A126802FB0300084B1B6B984210
:104E00004FEA917104D901330131C01A01F0030155
:104E100010BD00BF6C170020701700200050084024
:104E200038B50446FFF7C4FF0546FFF7C1FF431B33
:104E3000A342FAD338BD000038B5354B354C0822B3
:104E40000546C3F8C82034480121FCF7CBFE334B9C
:104E50001D702378013B012B0CD8237CE07B0122C1
:104E60009A400C21302313FB001303F1884303F510
:104E700020431A602A4B00225A67002D41D06368F4
:104E8000002B34D000F078F9626800EB5203B3FBDA
:104E9000F2F3013B1B0243F0F8032278022A28D0E8
:104EA000032A2AD0012A2FD143F0020307221D49E9
:104EB0004FF6FF70C86701F10071CB67184B5A6756
:104EC00053070CD5237CE07B01229A400C21302330
:104ED00013FB001303F18C4303F520431A604FF0DA
:104EE00080439DB1104AC2F89430002038BDF823A9
:104EF000D3E743F001030522D9E743F0050301227C
:104F0000D5E72A46F823D2E70022D0E7074AEAE7A6
:104F100000400E467817002000350A007417002064
:104F200000000840000008440040084600400844D3
:104F3000044BD3F89430002BBCBF034BC3F8800064
:104F4000704700BF00400840000008404FF0006379
:104F500018B1034AC2F894307047024AFAE700BF1A
:104F600000400846004008440020704708B5074B41
:104F70001B681A68064B920019684FF0045004F041
:104F800029F9BDE8084000F073BE00BF9417002067
:104F90009017002007B501A8FEF7EAF9134B144A51
:104FA000C3F8442148F2E672C3F838214FF408628E
:104FB000C3F834210F4AC3F8A0200F4A4AF63F41F4
:104FC000916002F580424FF0C07191620022C3F8F7
:104FD000FC200A4AC3F89C20094B7F225A6203F145
:104FE000007323225A6203B05DF804FB00400840BE
:104FF000C0E653517A27000F00300840806D6303EC
:1050000000300844064B1B783BB1064B064A1A6039
:10501000064B074A1A60002070470220704700BF05
:105020008C17002090170020B096000094170020E5
:105030005CB1000008B5FFF7E5FF002008BD0000E7
:1050400038B5194B0022C3F88820C3F88C20C3F868
:105050009020164A0121D1605A6812F0706FC2F395
:105060000365F9D14FF00452DA671149114C01225E
:10507000C3F8802019662270FFF7DCFF0E4B257005
:10508000186820B10D4B1868003818BF01204FF484
:105090009A625421FEF754FD094B1B689847094B4F
:1050A0000122DA6038BD00BF0040084000400846D9
:1050B000A01F00218C1700209017002094170020BB
:1050C0004000002000400844034BFD22C3F8C820E4
:1050D0000122C3F8CC20704700400E4638B5FFF7D8
:1050E000F3FF1B4B1B481C4C1C490222C3F8C82071
:1050F0001B4B1A6842B102EA0005A54204BF5D6875
:10510000156008338B42F4D1164B0222C3F8C82035
:10511000154B164AD3F83C111160154AC3F8942078
:1051200000F088FBFFF736FF124B0322C3F8D820AC
:10513000A3F500530122C3F894204FF46072DA60A3
:105140004FF04072C3F8F820C3F8102138BD00BFFB
:1051500000400E460000FFFF00000840B081E00F55
:105160000080E00F00400E44004008404400002052
:105170000048F0000060084608B5FCF749FC044B05
:10518000D3F81031C3F308230133B0FBF3F008BDAB
:1051900000400E40F8B5044620B1264E0125226895
:1051A000531C00D1F8BDC2F30063110C36F8130094
:1051B00011F0FE0F93B243EA004318D00434CAB290
:1051C000022A216808D9D4E90170033AC3E900171B
:1051D00098600C340C33F3E704D162680834C3E9F7
:1051E0000012DCE7012ADAD104341960D7E7120F84
:1051F00060680834072AD2D8DFE802F00A040811F0
:105200000C0F1417C04303F1806301E01A6850408B
:105210001860C4E7FFF704FEC1E705FA00F003F1E8
:10522000C063F5E705FA00F0EDE71A6830EA02021C
:10523000FBD1B4E782960000024B0122C3F8942010
:10524000704700BF00400846024B0122C3F894207B
:10525000704700BF00400844024B4022C3F894202E
:10526000704700BF00400844024B4022C3F894201E
:10527000704700BF0040084608B50C4B1B68D3F8C8
:10528000943023B11A68022A01D9186A08BDFFF7C1
:1052900073FF074B1B6D024698B20028F6D0C3F38C
:1052A0000743D2085343B3FBF0F0EFE75C13002051
:1052B00000600840064B5B68C3F30363984206D165
:1052C0000448836B23F0F00242EA011282637047C4
:1052D00000400840001F002110B50446FFF7CCFF36
:1052E000C4F30113022B05D0032B09D0012B00D1ED
:1052F000400810BDC4F3C4240134B0FBF4F0F8E757
:105300008008F6E700F03003202B10B513D110F41D
:10531000E02FC0F302431CBFC0F3C422B2FBF3F37F
:1053200010F4C01F18BF5B00052B0DD85C08FFF7F9
:10533000D3FF604310BDC0F38213012B06D0042BB2
:1053400014BF01240224F2E70424F0E70224EEE76C
:105350002DE9F84F0D46FFF72BFDDFF898908046BA
:105360000026FCF74DFB214B5968C1F303639F1ED8
:10537000012B8346FFB22AD0052B2AD0A3F10B01C3
:10538000D1F1000A4AEB010A012F24D8184B996881
:10539000C1F389140A0444BF6FEA84546FEA945439
:1053A00024B26B1C03D0FFF703FDA0EB08065846A0
:1053B000FDF766F814F5007F0FD1012F02D9BAF17D
:1053C000000F01D0AE42CCD32046BDE8F88F9A46FC
:1053D000DAE74FF0010A4C46E3E7C83C24B26FF429
:1053E000FF739C42B8BF1C46EEE700BF0040084078
:1053F0000070084000FEFFFF024B012218619A6016
:10540000704700BF00200840084910B5D1F870313E
:1054100040B11C464A68D1F870319C42F9D1C2F3C0
:105420000362027003F00F0010BD00BF004008408F
:10543000094BD3F8883001F0800103F480030B435B
:1054400009D1064B4FF400129A61837F1BB1044BC4
:105450000122C3F8F820704700400840006008446B
:105460000060084610B5FCF7CBFA084B1B680446F1
:105470003BB1984728B1002200204FF4806100F032
:1054800009FD2046BDE81040FCF7FABF9817002040
:105490002DE9F0411F4DDFF89080069FA2FB036CC1
:1054A00075196CF1000E0024A84574EB0E0507D2A7
:1054B0004FF4B4720E212046FEF742FB02201BE09F
:1054C0000029FBD0C0F3130001EB5305B5FBF3F348
:1054D000A3FB0030DB0C43EA40330F4803600F4B63
:1054E0001A600F4B994209D10E4BA6FB036103FBD7
:1054F0000C11890939602046BDE8F0814FEACC4C97
:105500000A462346F0044CEA563103F0BBF83860F3
:10551000F1E700BF00C9E8769C170020A017002023
:1055200000F049020A3BB2DF0046C32338B5164DEE
:105530002B780C4623B9154B1B6D03F03F032B70E2
:10554000134BD3F894305B051CD540F24D53114AF0
:10555000B0FBF2F25343A3F546400C38504300F53C
:10556000C91000F5556028B940F21B322B21FEF717
:10557000E7FA01202B78084A5343B3FBF0F0206090
:10558000002038BD0220FCE7A717002000300840AB
:105590000040084000366E0180969800314B70B58F
:1055A0001C68314B1D6B314B1B68ED024CBF1B1946
:1055B000E31AB3F1804F4CD82D4E002B4BD0B3FAE9
:1055C00083F5D5F102052B4C54BFEB400025A342D7
:1055D00088BF5B0803EB5604B4FBF6F4264E88BF85
:1055E0000135B34204F1FF3434BF0026012644EAFA
:1055F000862444EA05340C6050B3B3FBF0F1642414
:1056000000FB11336343984288BF01F1FF314B081F
:10561000581E072801F1FF334FEA53011DD80F2B05
:105620001BD8E0B9012B94BF00230123134C237036
:10563000134C0625C4F8945033B1124B1B781BB1A0
:10564000114B0224C3F894400B0243EA0013136089
:1056500070BD0E4EB3E72025B3E70023E6E7012334
:10566000E4E700BFA0170020003008409C1700208E
:10567000E06735003FBE4025401B5F13A5170020A3
:1056800000400844A617002000400846C0CF6A002A
:10569000084B5B6B03F00700C3F3C20213F0380F33
:1056A00018BF5043C3F3821213F4E07F18BF504376
:1056B000704700BF0030084070B505460C4651B138
:1056C0000B6843B15B6833B11A68032A03D99C6A3B
:1056D000640E204670BDFCF793F9D5F89060C5F8CC
:1056E000904001462846FFF7D3FFC5F89060044676
:1056F0000846FCF7C5FEECE7034BD3F8380180F011
:105700001000C0F30010704700400840174B4FF4E2
:10571000002210B5C3F89420154C164BB0F1804F01
:1057200098BF1C46144BDA6CD2071DD51B6F13486B
:1057300004F5F42404F59074B4FBF0F4033CE4B2F3
:1057400003F00703A34202D02046FCF7FFFE0C4BF8
:105750001B784BB10B4B4FF47022C3F8942003F12C
:1057600000732404C3F8944010BD00BF00400846F5
:10577000C0CF6A00E067350000300E4040420F00A5
:10578000A4170020004008447FB50446FCF73CF90C
:105790001C4B226806462C33586800933146A37987
:1057A000FFF776FE054648BBA379012B14BF1649C7
:1057B00016491022C1F83821206815495843FFF7CF
:1057C000B5FE03AA02A93046FFF7E8FE0F4A43F6EA
:1057D000FF53C2F8A4300C4B0299C3F8A4104FF445
:1057E000EE611163039A1A632068FFF78FFF094B7C
:1057F000A2881A6203F5405300229A63284604B037
:1058000070BD00BF0030084000400846004008441A
:10581000503008400000084008B5044B01221A70BF
:10582000034B1868FFF772FF002008BDA417002083
:10583000A0170020024B4FF48062C3F894207047F9
:10584000004008460D4BD3F80421D3F8B030D2B253
:10585000FF2A03D043F30743591C01D19022192397
:10586000074903EBD37302EB630381F8473002234C
:1058700081F84630232381F8453070470081E00FDE
:10588000001F002140B10368012B05D90069034BBB
:10589000002808BF184670470048704788960000E7
:1058A00038B5054614480C46FFF798FA2DB1C301E8
:1058B00003EB5503B3FBF5F32360104A5368D8029A
:1058C00017D40F4B1B68D2F8A810C3F3810311F44F
:1058D000806203F10103C9B218BFDA00FF2906D0C4
:1058E0000649D1F8AC10490501D502EBC30262604C
:1058F00038BD0022FBE700BF40420F000000084017
:1059000000200840084B1A68C117A2FB000310F1E1
:10591000807002FB013343F10003400E40EAC310E4
:10592000803820EAE0707047AC170020174B072240
:1059300070B5C3F88420FFF71FFC154B154A164EAF
:10594000C408010B0546E005C01841F10001002321
:1059500002F098FE114B18604EF66020FFF7D2FF60
:105960004042C6F89C000E48FFF738FA024658B18C
:10597000E301500818184FEA15714FF0000341F188
:10598000000102F07FFE706770BD00BF004008405C
:10599000B2E60E0065CD1D00001F0021AC170020EF
:1059A00040420F0038B14FF47A735843A0F6AC531D
:1059B000581AFFF7A7BF4CF25030FAE72DE9F84329
:1059C000164698460546002800F0AD800846FFF7C9
:1059D00059FF18F0050F07465DD02C69002C00F028
:1059E000A480FEF75DFE4FF47A735C43201A7C6856
:1059F000A0F6AC50001BFFF785FFAC8B3062002C8B
:105A000000F09680FEF74CFE4FF47A735C43201A48
:105A10007C68A0F6AC50001BFFF774FF70614A4B26
:105A2000EC68D3F80090002C00F08580FEF738FE7B
:105A30004FF47A735C43241A78683B68A4F6AC543C
:105A4000241AE41A414B1A68E117A2FB044314F12B
:105A5000807402FB013343F10003640E44EAC31473
:105A6000803C3B4BB4613B4CD3F88430F3612368FA
:105A70004BB1484602F00EFD28B12368D9F8480022
:105A8000324639469847AC69FEF70AFE0146204681
:105A9000FFF788FFF06218F0020F29D06B684FF40F
:105AA0007A7058435BB13B6803F51C5310331844BC
:105AB000AB7F002B46F2A81308BF00231844FFF762
:105AC00021FF6B69B062002B38D078684FF47A728E
:105AD00002FB0300AB7FA0F50350002BA0F11000E8
